{
  "_format": "hh-sol-artifact-1",
  "contractName": "SatyaTrail",
  "sourceName": "contracts/SatyaTrail.sol",
  "abi": [
    {
      "anonymous": false,
      "inputs": [
        {
          "indexed": true,
          "internalType": "string",
          "name": "hash",
          "type": "string"
        },
        {
          "indexed": false,
          "internalType": "string",
          "name": "claim",
          "type": "string"
        },
        {
          "indexed": false,
          "internalType": "string",
          "name": "verdict",
          "type": "string"
        },
        {
          "indexed": false,
          "internalType": "uint256",
          "name": "timestamp",
          "type": "uint256"
        }
      ],
      "name": "GraphStored",
      "type": "event"
    },
    {
      "inputs": [
        {
          "internalType": "string",
          "name": "_hash",
          "type": "string"
        }
      ],
      "name": "getGraph",
      "outputs": [
        {
          "internalType": "string",
          "name": "claim",
          "type": "string"
        },
        {
          "internalType": "string",
          "name": "verdict",
          "type": "string"
        },
        {
          "internalType": "uint256",
          "name": "accuracyScore",
          "type": "uint256"
        },
        {
          "internalType": "uint256",
          "name": "timestamp",
          "type": "uint256"
        },
        {
          "internalType": "address",
          "name": "submitter",
          "type": "address"
        },
        {
          "components": [
            {
              "internalType": "string",
              "name": "id",
              "type": "string"
            },
            {
              "internalType": "string",
              "name": "url",
              "type": "string"
            },
            {
              "internalType": "string",
              "name": "role",
              "type": "string"
            },
            {
              "internalType": "uint256",
              "name": "domainReputation",
              "type": "uint256"
            },
            {
              "internalType": "uint256",
              "name": "timestamp",
              "type": "uint256"
            },
            {
              "internalType": "string",
              "name": "title",
              "type": "string"
            }
          ],
          "internalType": "struct SatyaTrail.Node[]",
          "name": "nodes",
          "type": "tuple[]"
        }
      ],
      "stateMutability": "view",
      "type": "function"
    },
    {
      "inputs": [],
      "name": "getGraphCount",
      "outputs": [
        {
          "internalType": "uint256",
          "name": "",
          "type": "uint256"
        }
      ],
      "stateMutability": "view",
      "type": "function"
    },
    {
      "inputs": [
        {
          "internalType": "uint256",
          "name": "",
          "type": "uint256"
        }
      ],
      "name": "graphHashes",
      "outputs": [
        {
          "internalType": "string",
          "name": "",
          "type": "string"
        }
      ],
      "stateMutability": "view",
      "type": "function"
    },
    {
      "inputs": [
        {
          "internalType": "string",
          "name": "",
          "type": "string"
        }
      ],
      "name": "graphs",
      "outputs": [
        {
          "internalType": "string",
          "name": "claim",
          "type": "string"
        },
        {
          "internalType": "string",
          "name": "verdict",
          "type": "string"
        },
        {
          "internalType": "uint256",
          "name": "accuracyScore",
          "type": "uint256"
        },
        {
          "internalType": "uint256",
          "name": "timestamp",
          "type": "uint256"
        },
        {
          "internalType": "address",
          "name": "submitter",
          "type": "address"
        }
      ],
      "stateMutability": "view",
      "type": "function"
    },
    {
      "inputs": [
        {
          "internalType": "string",
          "name": "_hash",
          "type": "string"
        },
        {
          "internalType": "string",
          "name": "_claim",
          "type": "string"
        },
        {
          "internalType": "string",
          "name": "_verdict",
          "type": "string"
        },
        {
          "internalType": "uint256",
          "name": "_accuracyScore",
          "type": "uint256"
        },
        {
          "components": [
            {
              "internalType": "string",
              "name": "id",
              "type": "string"
            },
            {
              "internalType": "string",
              "name": "url",
              "type": "string"
            },
            {
              "internalType": "string",
              "name": "role",
              "type": "string"
            },
            {
              "internalType": "uint256",
              "name": "domainReputation",
              "type": "uint256"
            },
            {
              "internalType": "uint256",
              "name": "timestamp",
              "type": "uint256"
            },
            {
              "internalType": "string",
              "name": "title",
              "type": "string"
            }
          ],
          "internalType": "struct SatyaTrail.Node[]",
          "name": "_nodes",
          "type": "tuple[]"
        }
      ],
      "name": "storeGraph",
      "outputs": [],
      "stateMutability": "nonpayable",
      "type": "function"
    }
  ],
  "bytecode": "0x60808060405234601557610afb908161001b8239f35b600080fdfe608080604052600436101561001357600080fd5b60003560e01c9081632095de051461079f57508063418a9ab9146106f457806382d08ccb146106a55780639258e5a4146102865763f0d251511461005657600080fd5b34610281576020366003190112610281576004356001600160401b03811161028157602061008b61009e9236906004016107f6565b816040519382858094519384920161084c565b600090820190815203019020600281015460048201546005830154600384019291906001600160a01b03166100de60016100d7876108a9565b96016108a9565b918454926100eb846109a3565b936100f960405195866107d5565b80855260208501809760005260206000206000915b838310610210576101368b8b8b8b8b8b6101448c60405198899860c08a5260c08a019061094d565b9088820360208a015261094d565b9360408701526060860152608085015283820360a085015251808252602082019160208260051b82010193926000915b8383106101815786860387f35b9193955091936020806101fe600193601f1986820301875289519060a06101d96101c76101b7855160c0865260c086019061094d565b878601518582038987015261094d565b6040850151848203604086015261094d565b92606081015160608401526080810151608084015201519060a081840391015261094d565b97019301930190928695949293610174565b60066020600192604051610223816107ba565b61022c866108a9565b81526102398587016108a9565b83820152610249600287016108a9565b6040820152600386015460608201526004860154608082015261026e600587016108a9565b60a082015281520192019201919061010e565b600080fd5b346102815760a0366003190112610281576004356001600160401b038111610281576102b69036906004016107f6565b6024356001600160401b038111610281576102d59036906004016107f6565b906044356001600160401b038111610281576102f59036906004016107f6565b91608435926001600160401b0384116102815736602385011215610281578360040135610321816109a3565b9461032f60405196876107d5565b8186526024602087019260051b820101903682116102815760248101925b8284106105b75750505050604051926103848151946020818185019761037481838b61084c565b810160008152030190205461086f565b61057b57604093929351602081835161039e81838961084c565b81016000815203019020926103b385856109ba565b6103c083600186016109ba565b60643560028501554260048501556005840180546001600160a01b0319163317905560039093019260005b86518110156104ad57600581901b87016020015185546000600160401b82101561049957600182018089558210156104855791600560a061047f9360066020878d60019a995220910201926104418151856109ba565b61045160208201518886016109ba565b6104626040820151600286016109ba565b6060810151600385015560808101516004850155015191016109ba565b016103eb565b634e487b7160e01b81526032600452602490fd5b634e487b7160e01b81526041600452602490fd5b5084600154600160401b811015610565578060016104ce9201600155610972565b93909361054f5761051c610536938261050b610544947fd9f2a7b0c57dbd1c2f219b791115532bdc1b1e6c2a28114b8d97a56729345c92986109ba565b60405192839283925192839161084c565b81010390209460405193849360608552606085019061094d565b90838203602085015261094d565b4260408301520390a2005b634e487b7160e01b600052600060045260246000fd5b634e487b7160e01b600052604160045260246000fd5b60405162461bcd60e51b8152602060048201526014602482015273477261706820616c72656164792065786973747360601b6044820152606490fd5b83356001600160401b03811161028157820160c0602319823603011261028157604051916105e4836107ba565b60248201356001600160401b0381116102815761060790602436918501016107f6565b835260448201356001600160401b0381116102815761062c90602436918501016107f6565b602084015260648201356001600160401b0381116102815761065490602436918501016107f6565b60408401526084820135606084015260a4820135608084015260c4820135926001600160401b038411610281576106956020949360248695369201016107f6565b60a082015281520193019261034d565b3461028157602036600319011261028157600435600154811015610281576106cc90610972565b61054f576106dc6106f0916108a9565b60405191829160208352602083019061094d565b0390f35b34610281576020366003190112610281576004356001600160401b0381116102815761072c602061008b61077d9336906004016107f6565b8101600081520301902061073f816108a9565b9061074c600182016108a9565b60028201549161078b600482015491600560018060a01b03910154169260405196879660a0885260a088019061094d565b90868203602088015261094d565b926040850152606084015260808301520390f35b34610281576000366003190112610281576020906001548152f35b60c081019081106001600160401b0382111761056557604052565b90601f801991011681019081106001600160401b0382111761056557604052565b81601f82011215610281578035906001600160401b038211610565576040519261082a601f8401601f1916602001856107d5565b8284526020838301011161028157816000926020809301838601378301015290565b60005b83811061085f5750506000910152565b818101518382015260200161084f565b90600182811c9216801561089f575b602083101461088957565b634e487b7160e01b600052602260045260246000fd5b91607f169161087e565b90604051918260008254926108bd8461086f565b808452936001811690811561092b57506001146108e4575b506108e2925003836107d5565b565b90506000929192526020600020906000915b81831061090f5750509060206108e292820101386108d5565b60209193508060019154838589010152019101909184926108f6565b9050602092506108e294915060ff191682840152151560051b820101386108d5565b906020916109668151809281855285808601910161084c565b601f01601f1916010190565b60015481101561098d57600160005260206000200190600090565b634e487b7160e01b600052603260045260246000fd5b6001600160401b0381116105655760051b60200190565b91909182516001600160401b038111610565576109d7825461086f565b601f8111610a7d575b506020601f8211600114610a1b5781929394600092610a10575b50508160011b916000199060031b1c1916179055565b0151905038806109fa565b601f1982169083600052806000209160005b818110610a6557509583600195969710610a4c575b505050811b019055565b015160001960f88460031b161c19169055388080610a42565b9192602060018192868b015181550194019201610a2d565b826000526020600020601f830160051c81019160208410610abb575b601f0160051c01905b818110610aaf57506109e0565b60008155600101610aa2565b9091508190610a9956fea264697066735822122090d58ea1218d801574c990a91e57f70d9962d899cc1ca517fc5a158e1826f40664736f6c634300081c0033",
  "linkReferences": {},
  "deployedLinkReferences": {}
}